:100000000C94A7090C94D4090C94D4090C94D40929
:100010000C94D4090C94D4090C94D4090C94D409EC
:100020000C94D4090C94D4090C94D4090C94D409DC
:100030000C94D4090C94D4090C94D4090C94D409CC
:100040000C94D4090C944B250C94D4090C94D40929
:100050000C94D4090C94D4090C9463310C94EC677F
:100060000C94D4090C94AD0C0C94D4090C94D409C0
:100070000C94D4090C94D4090C94D4090C94D4098C
:100080000C94D4090C94D4090C94D4090C94D4097C
:100090000C94D4090C94D4090C94D4090C94D4096C
:1000A0000C94D4090C94D4090C94D4090C94D4095C
:1000B0000C94D4090C94D4090C94D4090C94D4094C
:1000C0000C94D4090C94D4090C94D4090C94D4093C
:1000D0000C94D4090C94D4090C94D4090C94D4092C
:1000E0000C94D4096563686F3A0020746F6F206CBC
:1000F0006F6E6720657874727573696F6E207072A9
:100100006576656E7465640020636F6C6420657845
:1001100074727573696F6E2070726576656E746542
:10012000640024F404D9201BC40C5C0E9804C40998
:100130005F0265077101F405F900FB04B300480490
:100140008700C10369005803550003034500BE0240
:100150003A008402310053022A00290225000402D9
:100160002000E4011C00C8011900AF01170098012C
:10017000140084011300710110006101100051018D
:100180000E0043010D0036010B002B010B00200176
:100190000B00150109000C01090003010800FB0018
:1001A0000800F3000800EB000700E4000600DE0092
:1001B0000600D8000600D2000600CC000500C700EB
:1001C0000500C2000500BD000400B9000400B50030
:1001D0000400B1000400AD000400A9000400A50063
:1001E0000300A20003009F0004009B00030098008E
:1001F00003009500020093000300900003008D00AF
:1002000002008B00030088000200860002008400C8
:100210000300810002007F0002007D0002007B00DD
:1002200002007900020077000100760002007400ED
:10023000020072000100710002006F0002006D00F8
:1002400001006C0002006A00010069000200670002
:100250000100660001006500010064000200620008
:10026000010061000100600001005F0002005D000C
:1002700001005C0001005B0001005A000100590010
:100280000100580001005700010056000100550010
:10029000010054000100530000005300010052000F
:1002A000010051000100500001004F0001004E000C
:1002B00000004E0001004D0001004C0001004B0009
:1002C00000004B0001004A00010049000100480005
:1002D0000000480001004700010046000000460001
:1002E00001004500000045000100440001004300FA
:1002F00000004300010042000000420001004100F4
:10030000000041000100400001003F0000003F00EC
:1003100001003E0000003E0001003D0000003D00E5
:1003200001003C0000003C0000003C0001003B00DC
:1003300000003B0001003A0000003A0001003900D3
:1003400000003900010038000000380000003800CB
:1003500001003700000037000100360000003600C1
:1003600000003600010035000000350000003500B7
:1003700001003400000034000000340001003300AC
:1003800000003300000033000100320000003200A2
:100390000000320001003100000031000000310097
:1003A00001003000000030000000300001002F008C
:1003B00000002F0000002F0000002F0001002E0081
:1003C00000002E0000002E0001002D0000002D0076
:1003D00000002D0000002D0001002C0000002C006A
:1003E00000002C0000002C0001002B0000002B005E
:1003F00000002B0000002B0001002A0000002A0052
:1004000000002A0000002A00010029000000290045
:100410000000290000002900000029000100280038
:10042000000028000000280000002800000028002C
:10043000010027000000270000002700000027001F
:100440000000270001002600000026000000260012
:100450000000260000002600010025000000250005
:1004600000002500000025000000250000002500F8
:1004700001002400000024000000240000002400EB
:1004800000002400010023000000230000002300DE
:1004900000002300000023000000230000002300D0
:1004A00001002200000022000000220000002200C3
:1004B00000002200000022000100210000002100B5
:1004C00000002100000021000000210000002100A8
:1004D000000021000100200000002000000020009A
:1004E000000020000000200000002000000020008C
:1004F0000000200001001F0000001F0000001F007E
:1005000000001F0000001F0000001F0000001F006F
:1005100001001E0000001E0000001E0000001E0062
:10052000000024F4D43050C38E20C2A24017828B26
:100530007011127A910D816CD90AA861E108C7582F
:100540006607615143061E4B5D05C145A7041A416C
:100550001104093D9803713931034036DB026533DC
:100560009102D4305402802E1D02632CEE01752AB4
:10057000C501B028A001102781018F2564012B241B
:100580004B01E0223401AC211F018D200D01801FA1
:10059000FC00841EED00971DDF00B81CD200E61B96
:1005A000C600201BBC00641AB200B219A8000A19C8
:1005B000A0006A189900D117910040178B00B5165A
:1005C000840031167E00B31579003A157300C71404
:1005D0006F0058146A00EE13660088136300251339
:1005E0005E00C7125B006C12570015125400C11157
:1005F000510070114F0021114B00D61049008D1091
:1006000047004610440002104200C00F4000800F17
:100610003E00420F3C00060F3B00CB0E3800930E0D
:1006200037005C0E3500270E3400F30D3200C10D8B
:100630003100900D3000600D2E00320D2D00050DA3
:100640002C00D90C2B00AE0C2900850C29005C0C69
:100650002700350C27000E0C2600E80B2400C40BE5
:100660002400A00B23007D0B23005A0B2100390B23
:100670002100180B2000F80A1F00D90A1E00BB0A2F
:100680001E009D0A1D00800A1D00630A1C00470A07
:100690001B002C0A1B00110A1A00F7091A00DD09B9
:1006A0001900C4091900AB091900920917007B0948
:1006B0001800630917004C091600360916002009B6
:1006C00016000A091500F5081500E0081400CC080A
:1006D0001400B8081400A4081400900813007D0842
:1006E00012006B0813005808120046081200340864
:1006F0001100230811001208110001081100F00771
:100700001000E0071000D0071000C0071000B0076D
:100710000F00A107100091070E0083070F00740758
:100720000F0065070E0057070E0049070E003B0734
:100730000D002E070E0020070D0013070D00060701
:100740000D00F9060C00ED060D00E0060C00D406C5
:100750000C00C8060C00BC060C00B0060C00A40679
:100760000B0099060C008D060B0082060B00770625
:100770000B006C060B0061060A0057060B004C06C6
:100780000A0042060A0038060A002E060A0024065D
:100790000A001A060A001006090007060A00FD05ED
:1007A0000900F4050900EB050900E2050900D90577
:1007B0000900D0050900C7050900BE050900B505F7
:1007C0000800AD050800A50509009C050800940572
:1007D00008008C050800840508007C0508007405E5
:1007E00008006C050700650508005D050700560553
:1007F00008004E05070047050700400508003805BA
:100800000700310507002A050700230507001C051E
:100810000600160507000F0507000805060002057B
:100820000700FB040600F5040700EE040600E804D8
:100830000600E2040700DB040600D5040600CF042E
:100840000600C9040600C3040600BD040600B70480
:100850000600B1040500AC040600A6040600A004CE
:1008600005009B04060095040500900406008A0418
:10087000050085040500800406007A04050075045F
:100880000500700405006B040500660405006104A2
:1008900005005C04050057040500520405004D04E2
:1008A000050048040500430405003E0404003A0422
:1008B000050035040500300404002C04050027045D
:1008C0000400230405001E0404001A040400160496
:1008D0000500110404000D040400090405000404CB
:1008E000040000040400FC030400F8030400F40303
:1008F0000400F0030400EC030400E8030400E40334
:100900000400E0030400DC030400D8030400D40363
:100910000400D0030400CC030400C8030300C50393
:1009200003004572726F723A0054656D70657261B2
:100930007475726520686561746564206265642001
:100940007377697463686564206F66662E204D4115
:100950005854454D5020747269676765726564200C
:100960002121003A2045787472756465722073778E
:10097000697463686564206F66662E204D494E5425
:10098000454D502074726967676572656420210067
:100990003A20457874727564657220737769746360
:1009A000686564206F66662E204D415854454D5051
:1009B0002074726967676572656420210070012C7C
:1009C0000190012701B0012201C0011D01F00118B1
:1009D000011002130130020E0160020901900204AD
:1009E00001C002FF000003FA004003F5008003F09D
:1009F00000D003EB002004E6007004E100E004DC1A
:100A0000004005D700C005D2004006CD00D006C882
:100A1000008007C3003008BE00F008B900C009B468
:100A200000B00AAF00B00BAA00D00CA500000EA0C9
:100A300000500F9B00C01096005012910000148CC3
:100A400000C0158700B0178200B0197D00D01B7858
:100A500000001E730040206E0090226900F02464A4
:100A60000040275F0090295A00E02B5500102E50BF
:100A70000020304B0010324600E033410090353CFE
:100A8000001037370070383200A0392D00B03A28F6
:100A900000A03B2300603C1E00103D1900903D1457
:100AA00000103E0F00703E0A00C03E0500003F00EF
:100AB00000202D20496E76616C696420657874721F
:100AC00075646572206E756D626572202100202D3F
:100AD00020496E76616C696420657874727564650E
:100AE00072206E756D62657221006F6B0050494413
:100AF000204175746F74756E652066696E697368E0
:100B00006564202120506C61636520746865204B0A
:100B1000702C204B6920616E64204B6420636F6EE3
:100B20007374616E747320696E2074686520636FDE
:100B30006E66696775726174696F6E2E68006F6B9F
:100B400000504944204175746F74756E652066616C
:100B5000696C6564212074696D656F75740020404F
:100B60003A00543A006F6B00504944204175746F4D
:100B700074756E65206661696C6564212054656DCD
:100B8000706572617475726520746F20686967683A
:100B900000204B643A2000204B693A2000204B7023
:100BA0003A200020436C617369632050494420005F
:100BB0002054753A2000204B753A2000206D617852
:100BC0003A2000206D696E3A200020643A2000200F
:100BD000626961733A2000202F003A0020540065BA
:100BE00063686F3A004572726F723A005072696EB4
:100BF0007465722073746F7070656420647565200D
:100C0000746F206572726F72732E2046697820743B
:100C10006865206572726F7220616E6420757365FD
:100C2000204D39393920746F207265737461727484
:100C3000212E202854656D7065726174757265206F
:100C400069732072657365742E205365742069740E
:100C5000206265666F726520726573746172746973
:100C60006E6729005072696E7465722068616C74D9
:100C700065642E206B696C6C28292063616C6C653F
:100C800064202121006F6B00526573656E643A2009
:100C9000002200556E6B6E6F776E20636F6D6D6115
:100CA0006E643A22007A5F6D696E3A2000795F6D5A
:100CB00061783A2000785F6D696E3A200020593AD9
:100CC0002000583A20004C65617066726F672046BC
:100CD00069726D776172653A20322E34204D6F64EF
:100CE000656C3A20586565642050524F544F434F0D
:100CF0004C5F56455253494F4E3A20312E302046D4
:100D000049524D574152455F4E414D453A4D6172F2
:100D10006C696E2056313B005A3A00593A00204324
:100D20006F756E7420583A00453A005A3A00593AA5
:100D300000583A0020593A2000583A200020423A00
:100D40000020453A00543A00202F0020423A00206B
:100D5000573A0020453A00543A0020403A00202FEC
:100D60000020423A00202F006F6B20543A002C20C4
:100D7000004C6F6E67206572726F72733A20002CA0
:100D8000200053686F7274206572726F72733A201C
:100D900000546F74616C206572726F72733A200038
:100DA00000008C4300005C43000066430000A0404C
:100DB0000000A0400000803FFF01FF000000000095
:100DC000005C430000000000000000000000000084
:100DD00000000000008C4300005C430000664353A9
:100DE000657474696E67732053746F726564005321
:100DF000746F7265642073657474696E67732072B2
:100E000065747265697665643A002059002058005F
:100E100045787472756465722032206F66667365FA
:100E200074732877696C6C206E6F742072657365BB
:100E3000742077697468206669726D7761726520C5
:100E40007265736574293A0020440020490020200F
:100E5000204D333031205000504944207365747464
:100E6000696E67733A00205A0020590020204D32E5
:100E70003036205800486F6D65206F666673657464
:100E800020286D6D293A00204500205A0020580086
:100E900020420020540020204D32303520530041A4
:100EA0006476616E636564207661726961626C6507
:100EB000733A20533D4D696E2066656564726174B6
:100EC0006520286D6D2F73292C20543D4D696E20AF
:100ED00074726176656C2066656564726174652004
:100EE000286D6D2F73292C20423D6D696E696D75DB
:100EF0006D207365676D656E742074696D6520285B
:100F00006D73292C20583D6D6178696D756D207861
:100F100059206A65726B20286D6D2F73292C202053
:100F20005A3D6D6178696D756D205A206A65726BE6
:100F300020286D6D2F73290020540020204D323061
:100F400034205300416363656C65726174696F6E30
:100F50003A20533D616363656C65726174696F6EBD
:100F60002C20543D72657472616374206163636503
:100F70006C65726174696F6E00204500205A002014
:100F8000590020204D3230312058004D6178696D74
:100F9000756D20416363656C65726174696F6E2065
:100FA000286D6D2F7332293A00204500205A002009
:100FB000590020204D3230332058004D6178696D42
:100FC000756D2066656564726174657320286D6D4A
:100FD0002F73293A00204500205A00205900202074
:100FE0004D3932205800537465707320706572203B
:100FF000756E69743A005072696E7465722073740C
:101000006F707065642064756520746F20657272FE
:101010006F72732E2046697820746865206572723D
:101020006F7220616E6420757365204D39393920E7
:10103000746F2072657374617274212E2028546558
:101040006D70657261747572652069732072657365
:1010500065742E20536574206974206265666F7212
:10106000652072657374617274696E6729004E6FD2
:10107000204C696E65204E756D62657220776974CB
:101080006820636865636B73756D2C204C617374A5
:10109000204C696E653A004E6F20436865636B7340
:1010A000756D2077697468206C696E65206E756D4A
:1010B0006265722C204C617374204C696E653A0035
:1010C000636865636B73756D206D69736D617463BF
:1010D000682C204C617374204C696E653A004C6931
:1010E0006E65204E756D626572206973206E6F7437
:1010F000204C617374204C696E65204E756D62657D
:10110000722B312C204C617374204C696E653A004F
:101110007374617274002020506C616E6E6572424F
:10112000756666657242797465733A20002046726E
:101130006565204D656D6F72793A20004C65617070
:1011400066726F67203344205072696E74657273E3
:1011500000207C20417574686F723A2000417072E3
:1011600020323520323031362031303A33333A3084
:101170003500204C61737420557064617465643A65
:101180002000312E302E30004D61726C696E2000CF
:1011900020536F66747761726520526573657400C1
:1011A000205761746368646F6720526573657400CB
:1011B0002042726F776E206F75742052657365746C
:1011C000002045787465726E616C20526573657499
:1011D00000506F7765725570002200656E717565FD
:1011E000696E6720220000002100240027002A00E9
:1011F0002D003000330001010000040107010A0145
:1012000000002200250028002B002E0031003400B1
:1012100002010000050108010B010000200023006D
:10122000260029002C002F003200000100000301DD
:101230000601090105050505070508080808020259
:1012400002020A0A08080404040401010101010160
:1012500001010303030303030303040707070C0C43
:101260000C0C0C0C0C0C020202020606060606060A
:1012700006060B0B0B0B0B0B0B0B010210202008AF
:1012800008102040102040800201020108040201E1
:101290000102040810204080804020100804020150
:1012A00080040201804020100804020108040201A9
:1012B0000102040810204080010204081020408030
:1012C0000000090A02080B0C0D07060304010000C8
:1012D000000000000000000000000000000000000E
:1012E00000000000000000000000000011100F00CE
:1012F00000000000000000000000000000000000EE
:10130000000000000000494E46494E4954594E41E4
:101310004ECDCCCC3D0AD7233C17B7D13877CC2B58
:10132000329595E6241FB14F0A000020410000C805
:101330004200401C4620BCBE4CCA1B0E5AAEC59D86
:101340007400410D4E0FA20FDE24252E2B3D1124DB
:101350001FBECFEFD1E2DEBFCDBF00E00CBF15E076
:10136000A0E0B2E0ECE4FDED00E00BBF02C00790AE
:101370000D92A435B107D9F71BBE19E1A4E5B5E07C
:1013800001C01D92A238B107E1F713E1CEE4D3E129
:1013900004C02297FE010E945E6EC234D107C9F7D5
:1013A0000E94C16A0C94A46E0C940000A0E0B0E00E
:1013B000ECEDF9E00C94736EEC015B0161157105C5
:1013C00019F0FB0191838083F9908F2D90E00E94AA
:1013D000626E892BC9F7FDE2FF1621F4F990EE2425
:1013E000E39405C02BE2F21609F4F990EE248E0185
:1013F00001501040C80166E073E143E050E062D262
:10140000892BF9F48E010E5F1F4FC80169E073E16B
:1014100045E050E057D2892B19F48E01095F1F4F28
:10142000A114B10419F0F50111830083E0FC04C09C
:1014300070E090E080E813C070E090E080E86FEF2B
:1014400007C1C8016EE073E143E050E03BD2892B55
:1014500069F4A114B10429F470E090E080EC6FE726
:10146000F7C02296F501D183C083F6CF8824992452
:1014700040E050E060E070E0EF2DE053EA30A0F58E
:10148000F2E0EF2A8E2D90E09C0128703070E2FE91
:1014900006C0232B79F50894811C911C2BC0232BAB
:1014A00019F0089481089108DB01CA0112E0880F45
:1014B000991FAA1FBB1F1A95D1F7480F591F6A1F02
:1014C0007B1F440F551F661F771F4E0F511D611D57
:1014D000711D483929E9520729E9620729E1720794
:1014E00048F084E0E82A06C0EE3F31F4E3FC39C05E
:1014F00098E0E92AF990C0CFE53311F0E53189F59C
:1015000029912D3219F4E0E1EE2A05C02B3219F0B1
:1015100081E090E003C0299182E090E0E22FE05367
:10152000EA3018F0C81BD90B1CC020E030E0FCE00A
:1015300020383F075CF4C901880F991F880F991F55
:10154000280F391F220F331F2E0F311DE991E05351
:10155000EA3068F3E4FE03C0309521953F4F820ED8
:10156000931ECE2CDD24E1FE07C0A114B10421F0AE
:101570002197F501D183C083CB01BA010E94E36BAF
:101580007B018C01F3E0CF22DD2423E0C216D104DD
:1015900021F417FB109517F9109557016801C80140
:1015A000B70120E030E040E050E00E94466B882325
:1015B00009F44AC097FE0DC025E2E22E23E1F22E87
:1015C0009094819491089394C0E2D0E000E010E000
:1015D00012C09DE3E92E93E1F92EF6CFF701259194
:1015E000359145915491C601B5010E941E6D5B0174
:1015F0006C018C1A9D0A8C169D0684F7D595C795AB
:101600000F5F1F4F0630110529F08CEF9FEFE80E9A
:10161000F91EF1CFC501D6017C018D018C2D880FFB
:101620008D2D881F8F3F51F0C601B50120E030E0BD
:1016300040E050E00E94466B882331F482E290E063
:1016400090938119809380197E2D9F2D802F612F7B
:10165000272F392F482F562FB901CA01CDB7DEB732
:10166000ECE00C948F6E2F923F925F926F927F927C
:101670008F929F92AF92BF92CF92DF92EF92FF92A2
:101680000F931F93CF93DF938C011B01EA01611528
:10169000710519F0FB0191838083209749F0CE01F9
:1016A0000297839728F020E030E040E050E0F6C059
:1016B000F801A1908F018A2D90E00E94626E892B23
:1016C000B9F7FDE2AF1631F4F801A1908F0155246E
:1016D000539407C0FBE2AF1619F4F801A1908F01F3
:1016E0005524209719F0C031D105C1F4F0E3AF16AD
:1016F00079F4F8018081883711F0883549F4F801D0
:10170000A1800E5F1F4FF2E05F2AC0E1D0E006C06B
:10171000209721F480E3A816E9F427C0C830D1054A
:1017200031F1C930D10524F4C230D10531F50CC0F6
:10173000CA30D10589F0C031D105F9F4C12CD12CC2
:10174000E12CB8E0FB2E28C0C12CD12CE12CA0E468
:10175000FA2E22C0CAE0D0E0FCECCF2EFCECDF2E4B
:10176000FCECEF2EFCE0FF2E17C0C8E0D0E0C12C4F
:10177000D12CE12CE0E1FE2E0FC09E01442737FD65
:101780004095542F60E070E080E090E80E940B6E7E
:10179000C901DA016C017D0120E030E040E050E059
:1017A00060E03E01882477FC8094982C70EDB72E81
:1017B000BA0CE9E0EB1570F48A2D81548A3118F4E3
:1017C00099ECB92E06C08A2D81568A3150F589EAE6
:1017D000B82EBA0C8B2D90E08C179D0714F56F3F37
:1017E000E1F0C216D306E406F506B0F0CA01B9016D
:1017F000A40193010E94D96D9B01AC012B0D311DF9
:10180000411D511D2130F0E03F07F0E04F07F0E8A7
:101810005F0710F461E001C06FEFF801A1908F0144
:10182000C5CF2114310481F0662331F001501040FE
:10183000F1011183008308C051FE1AC0025010400C
:10184000F1011183008314C067FF12C050FC05C072
:101850002FEF3FEF4FEF5FE704C020E030E040E0C4
:1018600050E882E290E0909381198093801916C02D
:1018700050FE08C050954095309521953F4F4F4FF1
:101880005F4F0CC057FF0AC082E290E0909381192D
:10189000809380192FEF3FEF4FEF5FE7B901CA0147
:1018A000DF91CF911F910F91FF90EF90DF90CF903C
:1018B000BF90AF909F908F907F906F905F903F9080
:1018C0002F900895FB01DC014150504088F08D912C
:1018D00081341CF08B350CF4805E659161341CF012
:1018E0006B350CF4605E861B611171F3990B0895E2
:1018F000881BFCCFFC018191861721F08823D9F742
:10190000992708953197CF010895FB01DC014150DB
:10191000504030F08D910190801919F40020B9F7F2
:10192000881B990B0895FB0151915523A9F0BF0124
:10193000DC014D9145174111E1F759F4CD010190BA
:10194000002049F04D9140154111C9F3FB014111AF
:10195000EFCF81E090E0019708951F920F920FB6AC
:101960000F920BB60F9211242F933F934F938F93A7
:101970009F93EF93FF934091C600E091D405F091BF
:10198000D50531969F012F77307031978091D6051C
:101990009091D7052817390739F0EC5AFA4F408350
:1019A0003093D5052093D405FF91EF919F918F91AE
:1019B0004F913F912F910F900BBE0F900FBE0F9044
:1019C0001F9018959A01AB01203081EE380780E016
:1019D000480780E0580749F182E08093C00060E04A
:1019E00079E08DE390E00E942D6E21503040404020
:1019F0005040CA01B90122E030E040E050E00E94CE
:101A00002D6E3093C5002093C4008091C100806189
:101A10008093C1008091C10088608093C100809153
:101A2000C10080688093C10008951092C00020E139
:101A300030E0E7CF2091D6053091D7058091D405CD
:101A40009091D5058217930719F42FEF3FEF0EC041
:101A5000F901EC5AFA4F80812F5F3F4F2F7730709A
:101A60003093D7052093D605282F30E0C90108957B
:101A70008091D6059091D7059093D5058093D40594
:101A8000089520E030E040E85FE32093D9053093EB
:101A9000DA054093DB055093DC0580E090E0A0E0A0
:101AA000B0E08093DD059093DE05A093DF05B09351
:101AB000E0058093E1059093E205A093E305B093E0
:101AC000E4058093E5059093E605A093E705B093C0
:101AD000E8052093E9053093EA054093EB05509320
:101AE000EC058093ED059093EE05A093EF05B09380
:101AF000F0058093F1059093F205A093F305B09360
:101B0000F4058093F5059093F605A093F705B0933F
:101B1000F8052093F9053093FA054093FB0550939F
:101B2000FC0508952F923F924F925F926F927F92A1
:101B30008F929F92AF92BF92CF92DF92EF92FF92DD
:101B40000F931F93DF93CF93CDB7DEB7A0970FB658
:101B5000F894DEBF0FBECDBF1C016A017B014115A9
:101B600051056105710541F440E350E060E070E02B
:101B700020E030E08BD055C0882499245401422EB7
:101B800055246624772401E010E00C0F1D1F080D7A
:101B9000191DC701B601A30192010E940B6EF80145
:101BA00060830894811C911CA11CB11CC701B60163
:101BB000A30192010E940B6EC901DA016C017D0143
:101BC000C114D104E104F104F1F681E0E82EF12C16
:101BD000EC0EFD1EE80CF91C3E010894611C711C02
:101BE000D501C4010197A109B1096C01C818D90830
:101BF00015C0F601EE0DFF1D40814A3010F4405D26
:101C000001C0495C552747FD5095652F752FC101CF
:101C100020E030E03BD00894E108F1086E147F0426
:101C200041F7A0960FB6F894DEBF0FBECDBFCF919F
:101C3000DF911F910F91FF90EF90DF90CF90BF90B9
:101C4000AF909F908F907F906F905F904F903F905C
:101C50002F9008952115310539F48091C00085FF3A
:101C6000FCCF4093C60008955DCFEF92FF920F9393
:101C70001F939A01E62EFF2400E010E0B801A701AF
:101C8000E9DF1F910F91FF90EF900895EF92FF927F
:101C90000F931F93CF93DF93EC017A018B012115F2
:101CA000310539F48091C00085FFFCCFE092C60079
:101CB00019C02A303105A9F477FF0FC04DE250E07A
:101CC00060E070E020E030E0E1DF10950095F094F6
:101CD000E094E11CF11C011D111DCE01B801A7010A
:101CE0002AE020DFDF91CF911F910F91FF90EF90BD
:101CF0000895EF92FF920F931F937B019A010027A3
:101D0000F7FC0095102FB801A701C0DF1F910F91BC
:101D1000FF90EF9008950F931F938C014DE050E0DA
:101D200060E070E020E030E0B1DFC8014AE050E060
:101D300060E070E020E030E0A9DF1F910F9108958E
:101D4000CF92DF92EF92FF920F931F938C019A0133
:101D50006B01EE24FF24B701A6017CDFC801DBDFA5
:101D60001F910F91FF90EF90DF90CF9008959F9279
:101D7000AF92BF92CF92DF92EF92FF920F931F9399
:101D8000CF93DF93EC017A018B01922ECB01BA0144
:101D900020E030E040E050E00E94466B882364F48D
:101DA000CE014DE250E060E070E020E030E06EDF18
:101DB00017FB109517F9109520E030E040E05FE345
:101DC000AA240BC0CA01B90120E030E040E251E48E
:101DD0000E944A6B9B01AC01A394A91498F3C8011B
:101DE000B7010E94CF6A7B018C010E94B76B5B0137
:101DF0006C010E94E36B9B01AC01C801B7010E941A
:101E0000CE6A7B018C01CE01B601A5012AE030E04B
:101E100021DF992099F1E0E0F2E007C08091C00055
:101E200085FFFCCF31969093C60090819923B1F73E
:101E300025C0C801B70120E030E040E251E40E9433
:101E40001E6D7B018C010E94B26B5B016C01CC2486
:101E5000B7FCC094DC2CCE01B601A5012AE030E02D
:101E600015DFC601B5010E94E56B9B01AC01C801FD
:101E7000B7010E94CE6A7B018C019A949920C9F621
:101E8000DF91CF911F910F91FF90EF90DF90CF9056
:101E9000BF90AF909F9008956ACF089520E030E002
:101EA00040E85FE32093FD053093FE054093FF0576
:101EB0005093000680E090E0A0E0B0E0809301063F
:101EC00090930206A0930306B09304068093050640
:101ED00090930606A0930706B09308068093090620
:101EE00090930A06A0930B06B0930C0620930D0660
:101EF00030930E0640930F06509310068093110600
:101F000090931206A0931306B093140680931506BF
:101F100090931606A0931706B0931806809319069F
:101F200090931A06A0931B06B0931C0620931D06DF
:101F300030931E0640931F06509320060895809309
:101F4000640B089520E030E040E85FE32093650BE8
:101F50003093660B4093670B5093680B80E090E0E2
:101F6000A0E0B0E08093690B90936A0BA0936B0B99
:101F7000B0936C0B80936D0B90936E0BA0936F0BD3
:101F8000B093700B8093710B9093720BA093730BB3
:101F9000B093740B2093750B3093760B4093770BB3
:101FA0005093780B8093790B90937A0BA0937B0BD3
:101FB000B0937C0B80937D0B90937E0BA0937F0B53
:101FC000B093800B8093810B9093820BA093830B33
:101FD000B093840B2093850B3093860B4093870B33
:101FE0005093880B0895FC016081718182819381F7
:101FF000209141063091420640914306509144069B
:102000000E941E6D0E94EE6C60938D0670938E068A
:1020100080938F06909390068DE896E00C94BB24F5
:102020008F929F92AF92BF92CF92DF92EF92FF92E8
:102030000F931F93FC018B015A014901608171814B
:102040008281938120913506309136064091370682
:10205000509138060E941E6D0E94EE6C31E8C32E2E
:1020600036E0D32E609381067093820680938306B8
:1020700090938406F801608171818281938120911F
:10208000390630913A0640913B0650913C060E9439
:102090001E6D0E94EE6C24E0E22EF12CEC0CFD1C77
:1020A00060938506F701718382839383F5016081D4
:1020B00071818281938120913D0630913E0640914D
:1020C0003F06509140060E941E6D0E94EE6C8601F4
:1020D000085F1F4F60938906F801718382839383A1
:1020E000F401608171818281938120914106309158
:1020F000420640914306509144060E941E6D0E9484
:10210000EE6CF6013C9660938D0671838283938317
:10211000C601B701A8019F010E94812480E090E0E0
:10212000A0E0B0E08093890B90938A0BA0938B0B77
:10213000B0938C0B80938D0B90938E0BA0938F0B91
:10214000B093900B8093910B9093920BA093930B71
:10215000B093940B8093950B9093960BA093970B51
:10216000B093980B8093990B90939A0BA0939B0B31
:10217000B0939C0B1F910F91FF90EF90DF90CF9049
:10218000BF90AF909F908F9008958F929F92AF9243
:10219000BF92CF92DF92EF92FF920F931F93CF9354
:1021A000DF93EC016B01009709F45CC08FA98823D1
:1021B00009F058C0EEA0FFA008A519A5FB01B6A024
:1021C000A7A090A481A4C801B7012B2D3A2D492DB9
:1021D000582D0E94466B88230CF044C0C801B701FB
:1021E000A80197010E941E6D7B018C016AA97BA941
:1021F0008CA99DA9905820E030E040E050EC0E946E
:102200001E6D2EA53FA548A959A90E941E6D9B01D0
:10221000AC01C801B7010E94CF6A0E94856D7B01A5
:102220008C016B2D7A2D892D982D9701A8010E9484
:10223000466B882324F4EB2CFA2C092D182D6B2DDA
:102240007A2D892D982D9701A8010E94466B88232D
:1022500049F0C701D801F60186A397A3A0A7B1A7AB
:1022600081E086ABDF91CF911F910F91FF90EF90AE
:10227000DF90CF90BF90AF909F908F900895EF9296
:10228000FF920F931F93CF93DF93F090630B00E0C7
:1022900010E020E030E04DE4E42E11C0FE9CE001AF
:1022A0001124CE56D94FC901B801AE016EDF8F2D72
:1022B0008F5F803109F480E0F82E98018E018091C3
:1022C000620BF81659F7C901B80140E050E05DDF34
:1022D000DF91CF911F910F91FF90EF900895AF92F2
:1022E000BF92CF92DF92EF92FF920F931F93CF9303
:1022F000DF93EB018A016115710509F466C0411590
:10230000510509F462C0DAA4CBA4BCA4ADA46EA1AB
:102310007FA188A599A52D2D3C2D4B2D5A2D0E94CE
:10232000466B882309F451C08FA9882309F043C064
:10233000F801E6A0F7A000A511A56D2D7C2D8B2D31
:102340009A2DA80197010E94EA6C1816A4F5C801FD
:10235000B701A80197010E941E6D7B018C016AA93B
:102360007BA98CA99DA9905820E030E040E050EC7A
:102370000E941E6D2EA53FA548A959A90E941E6D59
:102380009B01AC01C801B7010E94CF6A0E94856D14
:102390007B018C016D2D7C2D8B2D9A2D9701A80131
:1023A0000E94466B882324F4ED2CFC2C0B2D1A2D57
:1023B000C701D80104C08D2D9C2DAB2DBA2D8EA345
:1023C0009FA3A8A7B9A781E08EABDF91CF911F9102
:1023D0000F91FF90EF90DF90CF90BF90AF90089556
:1023E000CF92DF92EF92FF920F93DF93CF930F92F2
:1023F0000F92CDB7DEB78091620B8FB7F894F09053
:10240000630B8FBF8091620B90E040968F1991090A
:102410008F7090700497FCF00091620B03500F7066
:10242000CC24DD2440E050E06DE4E62E12C0802F85
:10243000002309F480E1082F01500E9DC0011124F2
:102440008E56994F9A838983B60149DFA601C980C8
:10245000DA800F1561F70F900F90CF91DF910F91F8
:10246000FF90EF90DF90CF9008953F924F925F9250
:102470006F927F928F929F92AF92BF92CF92DF9294
:10248000EF92FF920F931F93CF93DF93809191066A
:10249000882309F400C180911E0C90911F0C60E00C
:1024A0000E94A62E8090130490901404A09015040E
:1024B000B090160420E030E040E050E40E94CF6A83
:1024C000A50194010E94466B87FDE5C03090630B27
:1024D0000F2EF0E04F2EF0E05F2EF0E06F2EF0E0D8
:1024E0007F2EF02DCDE4D0E058C0232D30E02C9F7E
:1024F000F0012D9FF00D3C9FF00D1124EE56F94F89
:1025000080819181A281B3810097A105B10581F4F9
:1025100084819581A681B7810097A105B10541F419
:1025200080859185A285B3850097A105B10591F1BC
:102530002C9F60012D9FD00C3C9FD00C112482E970
:1025400096E0C80ED91EF601648575858685978547
:102550000E94E56B7B018C01F6016089718982899B
:1025600093890E94E36B9B01AC01C801B7010E94F3
:102570004A6BF60122A133A144A155A10E941E6D10
:102580007B018C01A30192010E94EA6C181614F4DD
:10259000270138013394FFE03F228091620B381607
:1025A00009F0A3CFC301B2012091170430911804A0
:1025B0004091190450911A040E941E6D9B01AC01B8
:1025C000C501B4010E94CF6A7B018C01A501940171
:1025D0000E94466B87FD02C04701580110910F040D
:1025E00000911004F0901104E0901204C501B401B0
:1025F000212F302F4F2D5E2D0E94EA6C181634F4D7
:10260000812F902FAF2DBE2D4C015D0140909D0B71
:1026100050909E0B60909F0B7090A00BC301B20175
:10262000A50194010E94EA6C1816C4F4C501B40116
:1026300020E037ED43EA5CE30E941E6D7B018C01D4
:10264000C301B20128E431EE4AE75FE30E941E6D48
:10265000A80197010E94CF6A4B015C0180929D0BFB
:1026600090929E0BA0929F0BB092A00BC501B4015B
:102670000E94B26BDC01CB0160E00E94C72F9093F7
:102680001F0C80931E0C80922A0C90922B0CA0920F
:102690002C0CB0922D0CDF91CF911F910F91FF90D8
:1026A000EF90DF90CF90BF90AF909F908F907F90F2
:1026B0006F905F904F903F9008951F939091630BA0
:1026C0008091620B981781F14091630B242F30E0C9
:1026D0008DE490E0289FF001299FF00D389FF00DC8
:1026E0001124E652F94F308120E06DE470E016C00D
:1026F000842F90E0869FF001879FF00D969FF00D4C
:102700001124E652F94F80819181A281B381009713
:10271000A105B10509F02F5F4F5F4F708091620BEB
:10272000481731F7132F0AC06091E90C662321F096
:102730008AE070E00E94FD6820E010E08091E90CE2
:10274000882339F4222329F48AE060E070E00E94B3
:10275000FD688091E90C882339F0112329F08AE083
:10276000612F70E00E94FD6880DE1F910895109235
:10277000620B1092630B80E1E1E8F6E0DF011D924D
:102780008A95E9F780E090E0A0E0B0E080938D0BBF
:1027900090938E0BA0938F0BB093900B8093910B23
:1027A0009093920BA093930BB093940B8093950B03
:1027B0009093960BA093970BB093980B8093990BE3
:1027C00090939A0BA0939B0BB0939C0B8093890BD7
:1027D00090938A0BA0938B0BB0938C0B08952F9240
:1027E0003F924F925F926F927F928F929F92AF92A1
:1027F000BF92CF92DF92EF92FF920F931F93DF93DE
:10280000CF93CDB7DEB766970FB6F894DEBF0FBE95
:10281000CDBF9E8B8D8B6A017B0148015901DC0184
:10282000D8966D917D918D919C91DB970E94E36B81
:10283000698B7A8B8B8B9C8BA70196010E941E6DF6
:102840000E94336B0E94B76B6D837E838F83988762
:1028500069897A898B899C89A50194010E941E6DE2
:102860000E94336B0E94B76B69837A838B839C834E
:102870002D813E814F81588528373105410551050D
:1028800040F448E750E060E070E04D835E836F8382
:10289000788769817A818B819C8168377105810590
:1028A000910540F488E790E0A0E0B0E089839A8346
:1028B000AB83BC83AD89BE89AC5BBF4FAD90BD908F
:1028C000CD90DC901397A454B040BE8BAD8BDC96BA
:1028D0006D917D918D919C91DF970E94E36B6D8747
:1028E0007E878F87988BC601B5010E94E56B1B011F
:1028F0002C0120E030E040E050E00E94466B88234D
:1029000021F4E0E070E060E028C069897A898B8971
:102910009C899B01AC010E941E6D7B018C016D8521
:102920007E858F8598899B01AC010E941E6D9B015D
:10293000AC01C801B7010E94CE6A7B018C01C201C3
:10294000B101A20191010E94CF6A9B01AC01C801B3
:10295000B7010E944A6BE62F692F2E2F372F482F81
:10296000562FB901CA010E94336B0E94B26B3B0122
:102970004C01ED89FE89E05CFF4F608171818281AD
:1029800093810E94E36B69877A878B879C87662790
:102990007727CB016A197B098C099D090E94E56B99
:1029A0005B016C0120E030E040E050E00E94466BAB
:1029B000882321F4E0E070E060E028C069857A8532
:1029C0008B859C859B01AC010E941E6D7B018C0157
:1029D00069897A898B899C899B01AC010E941E6D53
:1029E0009B01AC01C801B7010E94CE6A7B018C013A
:1029F000C601B501A60195010E94CF6A9B01AC01F9
:102A0000C801B7010E944A6BE62F692F2E2F372F7E
:102A1000482F562FB901CA010E94206CED89FE890A
:102A2000A088B188C288D38886017501E618F708A6
:102A3000080919090E94B26BA8019701261B370BE0
:102A4000480B590B57FF71C0C201B10120E030E0C3
:102A500040E050E00E94466B882321F4E0E070E003
:102A600060E044C0C201B101A20191010E94CF6A9D
:102A70007B018C01C601B5010E94E36B9B01AC0197
:102A8000C801B7010E941E6D7B018C016D857E859A
:102A90008F8598899B01AC010E941E6D9B01AC0142
:102AA000C801B7010E94CE6A7B018C0169857A85D5
:102AB0008B859C859B01AC010E941E6D9B01AC0126
:102AC000C801B7010E94CF6A7B018C01C201B1012C
:102AD00020E030E040E850E40E941E6D9B01AC0114
:102AE000C801B7010E944A6BE62F692F2E2F372F9E
:102AF000482F562FB901CA010E94336B0E94B26B56
:102B0000AC01CB01DA013C014D0197FE03C0662404
:102B1000772443016A147B048C049D0410F0350172
:102B2000460120E030E040E050E09FB7F8946D8926
:102B30007E89645B7F4FDB018C91AC54B040BE8BCF
:102B4000AD8B882321F5FD01648A758A868A978A70
:102B5000260D371D481D591D58962D933D934D93B5
:102B60005C935B972D813E814F815885DC962D9338
:102B70003D934D935C93DF97A05CBF4F29813A81D1
:102B80004B815C812D933D934D935C9313979FBF35
:102B900066960FB6F894DEBF0FBECDBFCF91DF9122
:102BA0001F910F91FF90EF90DF90CF90BF90AF906B
:102BB0009F908F907F906F905F904F903F902F905D
:102BC00008954F925F927F928F929F92AF92BF92A1
:102BD000CF92DF92EF92FF920F931F93CF93DF93E9
:102BE0007090630BC0E0D0E07DE4472E512C45C0CF
:102BF0002097A9F18EA9882361F4849CF001859C1B
:102C0000F00D949CF00D1124EE56F94F86A98823FF
:102C100031F1EAA0FBA00CA11DA16EA17FA188A5A6
:102C200099A5A80197010E944A6B5B016C01849CE5
:102C3000F001859CF00D949CF00D1124EE56F94F97
:102C400066A177A180A591A5A80197010E944A6B72
:102C50008B019C01CE01B601A501C1DD1EAA7394B2
:102C600080E1781609F47724849CE001859CD00DDE
:102C7000949CD00D1124CE56D94F872C992487FCD3
:102C800090948091620B90E08816990609F0B0CF7D
:102C90002097E9F0EAA0FBA00CA11DA16EA17FA1E5
:102CA00088A599A5A80197010E944A6B5B016C0158
:102CB0006DEC7CEC8CE49DE3A80197010E944A6BCB
:102CC0008B019C01CE01B601A50189DD1EAADF9111
:102CD000CF911F910F91FF90EF90DF90CF90BF9019
:102CE000AF909F908F907F905F904F90089578DB8A
:102CF000C6DA67CF2F923F924F925F926F927F9288
:102D00008F929F92AF92BF92CF92DF92EF92FF92FB
:102D10000F931F93DF93CF93CDB7DEB7CE58D0403C
:102D20000FB6F894DEBF0FBECDBF5C014B013A0178
:102D30002901C557DF4FE882CB58D040C457DF4F39
:102D4000F882CC58D040C357DF4F0883CD58D040CD
:102D5000C257DF4F1883CE58D040A996DFAECEAE13
:102D6000A9978091620B8F5F803109F480E0282F52
:102D7000332727FD309538AB2FA704C00E94B93305
:102D80000E9498498091630B90E04FA558A9841741
:102D90009507A1F3D5016D917D918D919C91209125
:102DA00035063091360640913706509138060E941C
:102DB0001E6D0E94EE6CE6966FAFE697E7967FAFCA
:102DC000E797E8968FAFE897E9969FAFE997F40108
:102DD00060817181828193812091390630913A0618
:102DE00040913B0650913C060E941E6D0E94EE6C85
:102DF000EA966FAFEA97EB967FAFEB97EC968FAFC3
:102E0000EC97ED969FAFED97D3016D917D918D91EC
:102E10009C9120913D0630913E0640913F06509195
:102E200040060E941E6D0E94EE6CEE966FAFEE970C
:102E3000EF967FAFEF97C158DF4F8883CF57D040D1
:102E4000C058DF4F9883C058D040F2016081718133
:102E50008281938120914106309142064091430640
:102E6000509144060E941E6D0E94EE6CCF57DF4FBA
:102E70006883C158D040CE57DF4F7883C258D040C6
:102E8000CD57DF4F8883C358D040CC57DF4F98834E
:102E9000C458D04080918D0690918E06A0918F06E7
:102EA000B0919006CF57DF4F288139814A815B81ED
:102EB000C158D040281739074A075B0709F44DC0AD
:102EC0006091E80CE62FF0E0EE0FFF1FEC5DF34F92
:102ED000808191810E94A62E20E030E046E153E4FB
:102EE0000E94466B88230CF038C08091640B8823C5
:102EF00009F033C0CF57DF4F488159816A817B8108
:102F0000C158D04040938D0650938E0660938F0633
:102F100070939006E4EEF0E0949108C08091C000B8
:102F200085FFFCCF9093C600319694919923B1F719
:102F3000E8E0F1E0949108C08091C00085FFFCCFEB
:102F40009093C600319694919923B1F78091C00077
:102F500085FFFCCF8AE08093C600609141067091A6
:102F60004206809143069091440669A77AA78BA7F1
:102F70009CA780918D0690918E06A0918F06B091AE
:102F80009006CF57DF4F288139814A815B81C15834
:102F9000D040281B390B4A0B5B0BCA01B90157FF04
:102FA00007C090958095709561957F4F8F4F9F4F8B
:102FB0000E94E56B7B018C0169A57AA58BA59CA578
:102FC00020E030E04AEF54E40E941E6D9B01AC010A
:102FD000C801B7010E94EA6C18160CF033C0CF5735
:102FE000DF4F488159816A817B81C158D04040932D
:102FF0008D0650938E0660938F0670939006E4EED4
:10300000F0E0949108C08091C00085FFFCCF9093C0
:10301000C600319694919923B1F7EAEEF0E09491CD
:1030200008C08091C00085FFFCCF9093C600319608
:1030300094919923B1F78091C00085FFFCCF8AE07D
:103040008093C6008091620B682F70E0A7967FAFD7
:103050006EAFA7978DE490E0689FF001699FF00D37
:10306000789FF00D1124EE56F94FE45BFF4F10826C
:10307000EC54F0408091810690918206A0918306E5
:10308000B0918406A5968CAF9DAFAEAFBFAFA597AC
:10309000E9962CAD3DAD4EAD5FADE997281B390BE0
:1030A0004A0B5B0BA1962CAF3DAF4EAF5FAFA19724
:1030B000208331834283538357FF0DC0DA01C90156
:1030C000B095A095909581959F4FAF4FBF4F80834E
:1030D0009183A283B38340918506509186066091C7
:1030E0008706709188066D964CAF5DAF6EAF7FAF6F
:1030F0006D97ED968CAD9DADAEADBFADED97841BDC
:10310000950BA60BB70B69968CAF9DAFAEAFBFAF5B
:1031100069978DE490E0A796AEADBFADA797A89F45
:10312000F001A99FF00DB89FF00D1124EE56F94F54
:1031300069962CAD3DAD4EAD5FAD69972483358367
:103140004683578357FF0DC0DA01C901B095A0959A
:10315000909581959F4FAF4FBF4F84839583A683F2
:10316000B7834091890650918A0660918B067091D1
:103170008C0665964CAF5DAF6EAF7FAF6597C35859
:10318000DF4F88819981AA81BB81CD57D040841BB4
:10319000950BA60BB70B61968CAF9DAFAEAFBFAFD3
:1031A00061978DE490E0A796AEADBFADA797A89FBD
:1031B000F001A99FF00DB89FF00D1124EE56F94FC4
:1031C00061962CAD3DAD4EAD5FAD619720873187E7
:1031D0004287538757FF0DC0DA01C901B095A0950A
:1031E000909581959F4FAF4FBF4F80879187A28762
:1031F000B38720908D0630908E0640908F065090B9
:103200009006CF57DF4F488159816A817B81C15831
:10321000D04042195309640975094DA35EA36FA3F9
:1032200078A7E0914B04F0914C04CB01BA0197FFD1
:1032300007C090958095709561957F4F8F4F9F4FF8
:103240009F01442737FD4095542F0E94D96D24E6F5
:1032500030E040E050E00E942D6E8DE490E0A796B3
:103260006EAD7FADA797689FF001699FF00D789FC5
:10327000F00D1124EE56F94FDF011C9624871196AC
:103280003C93119712964C93129713965C9360801F
:10329000718082809380A480B580C680D780E084CE
:1032A000F18402851385C901DA018E159F05A007F7
:1032B000B10714F4D801C7018A159B05AC05BD05FB
:1032C00014F4D601C5019C01AD0186159705A8052A
:1032D000B90514F4A40193018DE490E0A796AEAD76
:1032E000BFADA797A89FB001A99F700DB89F700DA3
:1032F00011246E56794FFB01208B318B428B538BFF
:10330000263031054105510510F40C948722E85B05
:10331000FF4F8091E90C90E0A0E0B0E080839183C2
:10332000A283B383DB0190961C92E9962CAD3DAD50
:103330004EAD5FADE997A5968CAD9DADAEADBFAD81
:10334000A597281739074A075B0724F481E0DB01BA
:1033500090968C93ED962CAD3DAD4EAD5FADED9757
:103360006D966CAD7DAD8EAD9FAD6D972617370711
:103370004807590794F48DE490E0A796AEADBFAD31
:10338000A797A89FF001A99FF00DB89FF00D1124F9
:10339000EE56F94F80A1826080A3C358DF4F288189
:1033A00039814A815B81CD57D04065966CAD7DAD4A
:1033B0008EAD9FAD6597261737074807590794F4D8
:1033C0008DE490E0A796AEADBFADA797A89FF001A2
:1033D000A99FF00DB89FF00D1124EE56F94F80A172
:1033E000846080A3CF57DF4F288139814A815B8178
:1033F000C158D040221533054405550594F48DE499
:1034000090E0A7964EAD5FADA797489FF001499F0A
:10341000F00D589FF00D1124EE56F94F80A18860F1
:1034200080A38DE490E0A7966EAD7FADA797689FCF
:10343000F001699FF00D789FF00D1124EE56F94FC1
:10344000A996AEADBFADA9978C9181A320813181A2
:10345000428153812D962CAF3DAF4EAF5FAF2D977C
:10346000211531054105510541F09FB7F894809130
:1034700008018F7E809308019FBF8DE490E0A7969E
:103480004EAD5FADA797489FF001499FF00D589F43
:10349000F00D1124EE56F94F648175818681978174
:1034A00029966CAF7DAF8EAF9FAF299761157105DF
:1034B0008105910509F012988DE490E0A796AEADD4
:1034C000BFADA797A89FF001A99FF00DB89FF00D81
:1034D0001124EE56F94F60847184828493846114C0
:1034E00071048104910419F047981798A2988DE40B
:1034F00090E0A7962EAD3FADA797289FF001299F9A
:10350000F00D389FF00D1124EE56F94F8485958506
:10351000A685B7850097A105B10559F04498419853
:103520002090550630905606409057065090580609
:1035300008C020906D0630906E0640906F06509047
:103540007006C557DF4F6881CB58D040C457DF4F56
:103550007881CC58D040C357DF4F8881CD58D040B8
:10356000C257DF4F9881CE58D040A20191010E94EE
:10357000466B87FD16C0C557DF4F8881CB58D040BA
:10358000C457DF4F9881CC58D040C357DF4FA88134
:10359000CD58D040C257DF4FB881CE58D0401C0123
:1035A0002D01A1966CAD7DAD8EAD9FADA1970E9412
:1035B000E56B2091350630913606409137065091E3
:1035C00038060E944A6BE2966FAFE297E3967FAFB0
:1035D000E397E4968FAFE497E5969FAFE597AC014C
:1035E000CB01DA0189839A83AB83BC8369966CAD86
:1035F0007DAD8EAD9FAD69970E94E56B2091390638
:1036000030913A0640913B0650913C060E944A6B2D
:10361000AE966FAFAE97AF967FAFAF97E0968FAF96
:10362000E097E1969FAFE197AC01CB01DA018D8382
:103630009E83AF83B88761966CAD7DAD8EAD9FAD37
:1036400061970E94E56B20913D0630913E064091C6
:103650003F06509140060E944A6BAA966FAFAA9708
:10366000AB967FAFAB97AC968FAFAC97AD969FAF55
:10367000AD97AC01CB01DA0189879A87AB87BC870C
:10368000E0904B04F0904C046DA17EA18FA198A511
:103690000E94E56B29A53AA54BA55CA50E944A6B43
:1036A0005B016C010027F7FC0095102FC801B701E2
:1036B0000E94E56B9B01AC01C601B5010E941E6D25
:1036C00020E030E048EC52E40E944A6B9B01AC01E0
:1036D0006D877E878F87988B2D966CAD7DAD8EAD77
:1036E0009FAD2D9766307105810591053CF52996B2
:1036F0008CAD9DADAEADBFAD29970697A105B105C7
:10370000ECF496E06916710481049104BCF48DE434
:1037100090E0A796AEADBFADA797A89FF001A99F77
:10372000F00DB89FF00D1124EE56F94FDA01C901E2
:10373000BF7786A797A7A0ABB1AB55C0E2962FADD8
:10374000E297E3963FADE397E4964FADE497E596B5
:103750005FADE597B901CA010E94CF6D3B014C01F5
:10376000AE962FADAE97AF963FADAF97E0964FAD0B
:10377000E097E1965FADE197B901CA010E94CF6D74
:103780005B016C01AA962FADAA97AB963FADAB97A4
:10379000AC964FADAC97AD965FADAD97B901CA0190
:1037A0000E94CF6D7B018C01C401B301A60195017C
:1037B0000E94CF6AA80197010E94CF6A0E94856D7E
:1037C0002DE430E0A7964EAD5FADA797429FF00184
:1037D000439FF00D529FF00D1124EE56F94F66A74E
:1037E00077A780AB91AB8DE490E0A7966EAD7FADEF
:1037F000A797689FF001699FF00D789FF00D112445
:10380000EE56F94F86A597A5A0A9B1A925968CAF2C
:103810009DAFAEAFBFAF259760E070E080E89FE35B
:1038200025962CAD3DAD4EAD5FAD25970E944A6B00
:103830009B01AC01C201B1010E941E6D2B013C0134
:103840008091620B9091630BA82FB0E05096A91B5A
:10385000B109AF70B070BEA7ADA7A230B1050CF42E
:1038600051C05D01CC24B7FCC094DC2CC601B5016D
:103870000E94E56B20E030E040E051E40E94466B9E
:1038800088230CF03FC060E074E284E799E4A30170
:1038900092010E944A6B0E94EE6C7B018C01609148
:1038A0002106709122068091230690912406E61647
:1038B000F7060807190730F56E197F09800B910B81
:1038C000660F771F881F991FA60195010E940B6E36
:1038D000CA01B9010E94E36B0E94EE6C9B01AC012E
:1038E0002E0D3F1D401F511FCA01B9010E94E36BFD
:1038F0009B01AC0160E074E284E799E40E944A6BAA
:103900002B013C018DE490E0A796EEADFFADA797AB
:10391000E89F8001E99F100DF89F100D11240E56AD
:10392000194F25966CAD7DAD8EAD9FAD2597A3014A
:1039300092010E941E6DD80192966D937D938D9396
:103940009C93959750966D917D918D919C915397F5
:103950000E94E36BA30192010E941E6D0E94336BD3
:103960000E94B76BF80160AF71AF82AF93AFCB57D6
:10397000DF4F1882C558D040CA57DF4F1882C6584B
:10398000D04020E8222E9FE3392E88249924E1E0BC
:10399000F0E0EC0FFD1FE80DF91DC301B20120811D
:1039A0003181428153810E941E6DE1E1F0E0EC0F14
:1039B000FD1FE80DF91D60837183828393835B0192
:1039C0006C01E894D7F8F401EB5DF94FE080F180E9
:1039D00002811381C601B501A80197010E94EA6C1A
:1039E0001816CCF4C801B701A60195010E944A6BD4
:1039F0006B017C01CB57DF4F6881C558D040CA5757
:103A0000DF4F7881C658D040C101A70196010E94BE
:103A1000466B88236CF4CB57DF4F8881C558D04064
:103A2000CA57DF4F9881C658D040D1016C017D0143
:103A300024E030E0820E931E30E18316910471F091
:103A4000D701C601CB57DF4FC882C558D040CA57EF
:103A5000DF4F9883C658D0401D0199CFC701B601EA
:103A600020E030E040E85FE30E94466B88230CF0E2
:103A70004CC08E010F5E1F4F81E2A82EB12CAC0E00
:103A8000BD1ED8016D917D918D919C91A7019601EC
:103A90000E941E6DF80161937193819391938F0140
:103AA000EA15FB0571F78DE490E0A7962EAD3FADCA
:103AB000A797289F8001299F100D389F100D112472
:103AC0000E56194FD80192966D917D918D919C91D2
:103AD0009597A70196010E941E6DF80162A373A33A
:103AE00084A395A360AD71AD82AD93AD0E94E36BED
:103AF000A70196010E941E6D0E94B76BD801D8964F
:103B00006D937D938D939C93DB978DE490E0A796C6
:103B1000EEADFFADA797E89F8001E99F100DF89FDC
:103B2000100D11240E56194FD80150966D917D91AC
:103B30008D919C9153970E94E36BF80126A537A5C0
:103B400040A951A90E944A6B1B012C01F8018081F8
:103B50009181A281B3810097A105B10549F58481C6
:103B60009581A681B7810097A105B10509F58085EA
:103B70009185A285B3850097A105B105C9F4C2015D
:103B8000B10120915D0630915E0640915F06509133
:103B900060060E941E6D0E94336B0C5B1F4F0E94DB
:103BA000B76BD8016D937D938D939C93139771C1DF
:103BB000C201B1012091590630915A0640915B062D
:103BC00050915C060E941E6D0E94336B0E94B76B81
:103BD0002DE430E0A796EEADFFADA797E29F600120
:103BE000E39FD00CF29FD00C112422E936E0C20EE4
:103BF000D31EB4E46B2E712C6C0C7D1CD3016D9321
:103C00007D938D939C93139780907106909072068C
:103C1000A0907306B09074060E94E36B7B018C0148
:103C2000F60160817181828193810E94E56B9B0125
:103C3000AC01C801B7010E941E6D7B018C01D60149
:103C400050966D917D918D919C9153970E94E36B5D
:103C50009B01AC01C801B7010E944A6B7B018C013A
:103C6000C501B4010E94E36B9B01AC01C801B7011F
:103C70000E94EA6C18162CF4F30180829182A282D1
:103C8000B3828090750690907606A0907706B090EB
:103C900078068DE490E0A7962EAD3FADA797289FBC
:103CA0006001299FD00C389FD00C112442E956E0C6
:103CB000C40ED51EA4E46A2E712C6C0C7D1CD3019D
:103CC0006D917D918D919C910E94E36B7B018C01A4
:103CD000F60164817581868197810E94E56B9B0165
:103CE000AC01C801B7010E941E6D7B018C01D60199
:103CF00050966D917D918D919C9153970E94E36BAD
:103D00009B01AC01C801B7010E944A6B7B018C0189
:103D1000C501B4010E94E36B9B01AC01C801B7016E
:103D20000E94EA6C18162CF4F30180829182A28220
:103D3000B38280907D0690907E06A0907F06B09022
:103D400080068DE490E0A7962EAD3FADA797289F03
:103D50006001299FD00C389FD00C112442E956E015
:103D6000C40ED51EF4E46F2E712C6C0C7D1CD30197
:103D70006D917D918D919C910E94E36B7B018C01F3
:103D8000F60164857585868597850E94E56B9B01A4
:103D9000AC01C801B7010E941E6D7B018C01D601E8
:103DA00050966D917D918D919C9153970E94E36BFC
:103DB0009B01AC01C801B7010E944A6B7B018C01D9
:103DC000C501B4010E94E36B9B01AC01C801B701BE
:103DD0000E94EA6C18162CF4F30180829182A28270
:103DE000B3828090790690907A06A0907B06B0907E
:103DF0007C068DE490E0A7962EAD3FADA797289F57
:103E00006001299FD00C389FD00C112442E956E064
:103E1000C40ED51EE4E46E2E712C6C0C7D1CD301F7
:103E20006D917D918D919C910E94E36B7B018C0142
:103E3000F60160857185828593850E94E56B9B0103
:103E4000AC01C801B7010E941E6D7B018C01D60137
:103E500050966D917D918D919C9153970E94E36B4B
:103E60009B01AC01C801B7010E944A6B7B018C0128
:103E7000C501B4010E94E36B9B01AC01C801B7010D
:103E80000E94EA6C18162CF4F30180829182A282BF
:103E9000B3828DE490E0A7962EAD3FADA797289F03
:103EA0006001299FD00C389FD00C112442E956E0C4
:103EB000C40ED51EF601EC5BFF4F608171818281DB
:103EC00093810E94E36B7B018C01A20191010E940E
:103ED0004A6BD601D2966D937D938D939C93D59723
:103EE000C801B7012DEB37E346E051E40E941E6D97
:103EF0000E94B26BF601648F758F868F978F6090EA
:103F00006106709062068090630690906406C4011A
:103F1000B30120E030E040E05FE30E941E6D5B01F2
:103F20006C01298D3A8D4B8D5C8D21962CAF3DAF68
:103F30004EAF5FAF21974091650650916606609144
:103F400067067091680649AF5AAF6BAF7CAFCB0183
:103F5000BA0120E030E040E05FE30E941E6D7B018B
:103F60008C0121966CAD7DAD8EAD9FAD21979F7775
:103F7000A80197010E94EA6C181644F4C601B50125
:103F8000A80197010E94466B882314F486017501ED
:103F90006D8D7E8D8F8D98A16DAB7EAB8FAB98AF05
:103FA0008091690690916A06A0916B06B0916C06AB
:103FB00089AB9AABABABBCABBC01CD0120E030E030
:103FC00040E05FE30E941E6D1B012C016DA97EA9DC
:103FD0008FA998AD9F77A20191010E94EA6C1816F3
:103FE00044F4C801B701A20191010E94466B8823E5
:103FF00014F4170128018DE490E0A796AEADBFAD93
:10400000A797A89FF001A99FF00DB89FF00D11246C
:10401000EE56F94F22A133A144A155A129A33AA3F9
:104020004BA35CA3C201B1010E94466B87FD04C093
:1040300029A03AA04BA05CA04DA55EA54230510539
:104040000CF407C15091890BC957DF4F5883C758EB
:10405000D04060918A0BC857DF4F6883C858D04062
:1040600070918B0BC757DF4F7883C958D040809130
:104070008C0BC657DF4F8883CA58D040652FC8576E
:10408000DF4F7881C858D040C757DF4F8881C95863
:10409000D040C657DF4F9881CA58D04027E137EB50
:1040A00041ED58E30E94EA6C18160CF0D2C0698901
:1040B0007A898B899C8920918D0B30918E0B409150
:1040C0008F0B5091900B0E94CE6A9B01AC010E9415
:1040D0001E6D7B018C016D897E898F89988D209161
:1040E000910B3091920B4091930B5091940B0E9445
:1040F000CE6A9B01AC010E941E6D9B01AC01C80100
:10410000B7010E94CF6A0E94856D7B018C01A401DA
:1041100093010E94EA6C18165CF00F2EF0E06F2EEF
:10412000F0E07F2EF0E88F2EFFE39F2EF02D08C0E9
:10413000C401B301A80197010E944A6B3B014C01E5
:1041400021966CAD7DAD8EAD9FAD21972091950BE5
:104150003091960B4091970B5091980B0E94CE6A2C
:104160007B018C01E89417F9C801B70129AD3AAD7C
:104170004BAD5CAD0E94EA6C181694F469AD7AAD53
:104180008BAD9CADA80197010E944A6B5B016C014D
:10419000C401B301A60195010E94466B882314F463
:1041A000640153016DA97EA98FA998AD2091990B47
:1041B00030919A0B40919B0B50919C0B0E94CE6AC0
:1041C0007B018C01E89417F9C801B70129A93AA924
:1041D0004BA95CA90E94EA6C181694F469A97AA903
:1041E0008BA99CA9A80197010E944A6B7B018C01B5
:1041F000C601B501A80197010E94466B882314F4FB
:104200008601750169A17AA18BA19CA1A8019701E2
:104210000E941E6D7B018C01C957DF4F6881C75812
:10422000D040C857DF4F7881C858D040C757DF4FBC
:104230008881C958D040C657DF4F9881CA58D040AE
:10424000A80197010E94466B87FD19C0D801C701DC
:1042500002C0D201C101C957DF4F8883C758D0407F
:10426000C857DF4F9883C858D040C757DF4FA8833F
:10427000C958D040C657DF4FB883CA58D0408DE4E4
:1042800090E0A796AEADBFADA797A89F8001A99F6C
:10429000100DB89F100D11240E56194FC957DF4F3E
:1042A0008881C758D040C857DF4F9881C858D04040
:1042B000C757DF4FA881C958D040C657DF4FB881D4
:1042C000CA58D040F80182A793A7A4A7B5A762A9AE
:1042D00073A984A995A9905820E030E040E050EC03
:1042E0000E941E6DD8019E962D913D914D915C913D
:1042F000D1970E941E6D2BE037ED43E25BE30E94F5
:10430000CF6A0E94856DF62EE72ED82EC92EC9578A
:10431000DF4F6881C758D040C857DF4F7881C858F1
:10432000D040C757DF4F8881C958D040C657DF4FAC
:104330009881CA58D0402F2D3E2D4D2D5C2D0E94C6
:10434000466B87FD14C0C957DF4FF882C758D0406D
:10435000C857DF4FE882C858D040C757DF4FD882D0
:10436000C958D040C657DF4FC882CA58D0408DE4E4
:1043700090E0A796EEADFFADA797E89F8001E99F7B
:10438000100DF89F100D11240E56194FC957DF4F0D
:104390008881C758D040C857DF4F9881C858D0404F
:1043A000C757DF4FA881C958D040C657DF4FB881E3
:1043B000CA58D040F80186A397A3A0A7B1A762A1CD
:1043C00073A184A195A12F2D3E2D4D2D5C2D0E9412
:1043D000466B18162CF081E0D801D7968C9302C05A
:1043E000F80117AA8DE490E0A7962EAD3FADA797F0
:1043F000289FF001299FF00D389FF00D1124EE56F3
:10440000F94F81E086ABADE8BBE0FE01719680E13B
:1044100001900D928150E1F78DE490E0A7964EADAA
:104420005FADA797489F6001499FD00C589FD00C63
:10443000112462E976E0C60ED71ED6019296ED9061
:10444000FD900D911C919597E092890BF0928A0B4B
:1044500000938B0B10938C0B96966D917D918D91A3
:104460009C919997A80197010E944A6B4B015C01AE
:10447000C201B101A80197010E944A6B8B019C0106
:10448000C601B501A4010E94EF13BFA5B093620B52
:10449000CF57DF4F288139814A815B81C158D04095
:1044A00020938D0630938E0640938F06509390068E
:1044B000C358DF4F488159816A817B81CD57D040F5
:1044C0004093890650938A0660938B0670938C06FE
:1044D000ED966CAD7DAD8EAD9FADED97609385068D
:1044E000709386068093870690938806E9968CAD34
:1044F0009DADAEADBFADE9978093810690938206E6
:10450000A0938306B09384060E947716EFD0C2571B
:10451000DF4F0FB6F894DEBF0FBECDBFCF91DF9156
:104520001F910F91FF90EF90DF90CF90BF90AF90D1
:104530009F908F907F906F905F904F903F902F90C3
:1045400008958091060C882341F48091080C8823FB
:1045500021F480910A0C882331F01092060C1092FD
:10456000080C10920A0C0895EF92FF920F931F937C
:10457000CF93DF937B018C010E94E56B25E535E548
:1045800045ED52E40E944A6B0E94B26BEB018091B0
:10459000020C9091030C161617060CF444C0892BDC
:1045A00029F010921B0C10921A0C89C060911A0C01
:1045B00070911B0C6E0D7F1D70931B0C60931A0C79
:1045C00080E090E00E94E36B20E030E040EA53E4BA
:1045D0000E94EA6C18160CF078C08091A50B90919F
:1045E000A60B01969093A60B8093A50B80911C0CB3
:1045F00090911D0C019690931D0C80931C0C0B97B1
:1046000008F463C010921D0C10921C0C81E0809382
:10461000AD0B8091A90B9091AA0B01969093AA0BD8
:104620008093A90B42C0BC0180E090E00E94E36B44
:104630007B018C01BE01882777FD8095982F0E9411
:10464000E56B2CE032E04BEA5EE30E941E6D9B01BD
:10465000AC01C801B7010E94466B882384F5209104
:104660001C0C30911D0C2F5F3F4F30931D0C20937D
:104670001C0C8091A70B9091A80B01969093A80B0E
:104680008093A70B2B30310500F110921D0C109276
:104690001C0C81E08093AD0B8091AB0B9091AC0B27
:1046A00001969093AC0B8093AB0B8091A30B9091F0
:1046B000A40B01969093A40B8093A30B06C01092B9
:1046C0001D0C10921C0C1092AD0BDF91CF911F911D
:1046D0000F91FF90EF9008951092060C1092080C25
:1046E00010920A0C089580931F040895EFE6F0E0FD
:1046F0008081826080830895809107018460809327
:104700000701089A2091EA0C3091EB0C2115310534
:1047100039F43D9A8091070182608093070111C0AE
:104720002130310511F43D9A11C02230310531F4A8
:104730008091070182608093070108C02330310512
:1047400029F4809104018160809304013A9A999A36
:10475000809107018061809307019FB7F894809151
:1047600008018061809308019FBF0A9A129A21155F
:10477000310529F43F9A479A0F9A179A0FC02130B2
:10478000310519F43F9A479A0BC02230310519F4CC
:104790000F9A179A05C02330310511F49A9AA29AFC
:1047A0003C9A449A399A419A80910A018B7F80936E
:1047B0000A019FB7F89480910B01846080930B01EC
:1047C0009FBF80910A018E7F80930A019FB7F89462
:1047D00080910B01816080930B019FBF80910A0142
:1047E0008D7F80930A019FB7F89480910B018260BE
:1047F00080930B019FBF8091070188608093070120
:104800009FB7F89480910801877F809308019FBF2C
:104810009FB7F894809108018061809308019FBF41
:10482000099A1198129A2115310571F43E9A469809
:10483000479A0E9A1698179A809104018260809385
:1048400004019FB7F89418C02130310521F43E9A35
:104850004698479A18C02230310521F40E9A1698CE
:10486000179A11C02330310571F4809104018260E0
:10487000809304019FB7F894809105018D7F809308
:1048800005019FBFA29A3B9A4398449A389A409850
:10489000419A809181008F7E809381008091810078
:1048A000886080938100809180008D7F809380005C
:1048B000809180008E7F80938000809180008F7334
:1048C00080938000809180008F7C80938000809115
:1048D0008100887F82608093810080E090E49093E3
:1048E0008900809388001092850010928400809146
:1048F0006F00826080936F0081E080931F04789442
:1049000008951F93FC011FB7F89480819181A281C3
:10491000B3818093BA0B9093BB0BA093BC0BB09365
:10492000BD0BFB0180819181A281B3818093BE0B7D
:104930009093BF0BA093C00BB093C10BFA01808181
:104940009181A281B3818093C20B9093C30BA093FA
:10495000C40BB093C50BF90180819181A281B38111
:104960008093C60B9093C70BA093C80BB093C90B51
:104970001FBF1F910895FC012FB7F894808191818A
:10498000A281B3818093C60B9093C70BA093C80BF1
:10499000B093C90B2FBF0895E82F8FB7F894F0E0BC
:1049A000EE0FFF1FEE0FFF1FE654F44F2081318101
:1049B000428153818FBFB901CA01089520E030E0E0
:1049C00040E85FE32093CA0B3093CB0B4093CC0BB2
:1049D0005093CD0B80E090E0A0E0B0E08093CE0B50
:1049E0009093CF0BA093D00BB093D10B8093D20BAD
:1049F0009093D30BA093D40BB093D50B8093D60B8D
:104A00009093D70BA093D80BB093D90B2093DA0BCC
:104A10003093DB0B4093DC0B5093DD0B8093DE0B6C
:104A20009093DF0BA093E00BB093E10B8093E20B2C
:104A30009093E30BA093E40BB093E50B8093E60B0C
:104A40009093E70BA093E80BB093E90B2093EA0B4C
:104A50003093EB0B4093EC0B5093ED0B089590913A
:104A6000620B8091630B981729F00E94B9330E9462
:104A70009849F5CF0895F3DF9FB7F894E8E0F1E0A7
:104A80008081806180839FBF129A479A179AA29A69
:104A9000449A419A08951F920F920FB60F920BB647
:104AA0000F921124AF92BF92CF92DF92EF92FF92BA
:104AB0000F931F932F933F934F935F936F937F9326
:104AC0008F939F93AF93BF93CF93DF93EF93FF9316
:104AD0008091A10B9091A20B892B09F09DC190911F
:104AE000620B8091630B981719F4E0E0F0E014C0BA
:104AF0008091630B90E02DE430E0829FF001839F72
:104B0000F00D929FF00D1124EE56F94FE45BFF4F2C
:104B100081E08083EC54F040F093A20BE093A10B72
:104B2000309709F473C1E45BFF4F81E080831092FA
:104B3000120C1092130C1092140C1092150CE091A0
:104B4000A10BF091A20B60AD71AD2CE9613472073D
:104B500018F060E47CE904C03EE46132730730F091
:104B6000769567957695679584E007C047E2613151
:104B7000740730F07695679582E080930B0C07C040
:104B800080930B0C6032710510F460E270E06052AB
:104B9000704058E060307507E8F0472F50E0440F50
:104BA000551F440F551F4E5D5E4F9A012E5F3F4FBC
:104BB000F901859194919C01AA27639FC001629F8E
:104BC000810D9A1F06948A1F9A1F1124FA0145919C
:104BD00054911EC0CB01969587958C7F8E5D9A4F20
:104BE000FC0145915491FC01329625913491862F18
:104BF00090E087709070FC012E9FC0012F9F900D58
:104C00003E9F900D112423E0969587952A95E1F714
:104C1000481B590B44365105A8F4E2E0F2E007C006
:104C20008091C00085FFFCCF31969093C6009081A3
:104C30009923B1F788ED95E04AE050E00E94A00E7C
:104C400044E650E05093170C4093160C80910B0CE7
:104C5000992787FD90959093190C8093180CE091FB
:104C6000A10BF091A20B64AD75AD7093110C609324
:104C7000100CFCE961347F0718F060E47CE904C0A3
:104C80002EE46132720730F07695679576956795D8
:104C900084E007C037E26131730730F0769567959D
:104CA00082E080930B0C08C081E080930B0C603293
:104CB000710510F460E270E06052704048E06030CE
:104CC0007407E8F0472F50E0440F551F440F551F5D
:104CD0004E5D5E4F9A012E5F3F4FF9018591949191
:104CE0009C01AA27639FC001629F810D9A1F0694B1
:104CF0008A1F9A1F1124FA01459154911EC0CB01BD
:104D0000969587958C7F8E5D9A4FFC0145915491C5
:104D1000FC01329625913491862F90E08770907037
:104D2000FC012E9FC0012F9F900D3E9F900D1124DE
:104D3000F3E096958795FA95E1F7481B590B4436B1
:104D40005105A8F4E2E0F2E007C08091C00085FFC1
:104D5000FCCF31969093C60090819923B1F788EDEE
:104D600095E04AE050E00E94A00E44E650E0CA01FF
:104D7000A0E0B0E080930C0C90930D0CA0930E0C6F
:104D8000B0930F0C5093890040938800E091A10BE1
:104D9000F091A20B80899189A289B389B695A795D4
:104DA00097958795B095A095909581959F4FAF4F1A
:104DB000BF4F8093EE0B9093EF0BA093F00BB0934B
:104DC000F10B8093F20B9093F30BA093F40BB09341
:104DD000F50B8093F60B9093F70BA093F80BB09321
:104DE000F90B8093FA0B9093FB0BA093FC0BB09301
:104DF000FD0B1092FE0B1092FF0B1092000C109204
:104E0000010C1092030C1092020C06C080ED97E08A
:104E10009093890080938800E091A10BF091A20B00
:104E2000309709F4B7C580A18093040C80FF0AC0B5
:104E30008FB7F894909108019B7F909308018FBFE2
:104E40008FEF09C08FB7F894909108019460909308
:104E500008018FBF81E080931B048091040C81FFC7
:104E600003C0109A8FEF02C0109881E080931C0459
:104E70008091040C80FF3DC080911F048823C9F1FC
:104E80008091090182FD02C080E031C08091050C53
:104E9000882361F1E091A10BF091A20B80819181B7
:104EA000A281B381181619061A061B06FCF480911C
:104EB000BA0B9091BB0BA091BC0BB091BD0B809332
:104EC000AE0B9093AF0BA093B00BB093B10B81E0FE
:104ED0008093060C80899189A289B3898093FE0B07
:104EE0009093FF0BA093000CB093010C81E0809392
:104EF000050C8091040C81FD3DC080911F04882326
:104F0000C9F18091090181FD02C080E031C080912A
:104F1000070C882361F1E091A10BF091A20B848131
:104F20009581A681B781181619061A061B06FCF48E
:104F30008091BE0B9091BF0BA091C00BB091C10BA3
:104F40008093B20B9093B30BA093B40BB093B50BBB
:104F500081E08093080C80899189A289B38980932C
:104F6000FE0B9093FF0BA093000CB093010C81E01B
:104F70008093070C8091040C2091EA0C3091EB0C8B
:104F800082FF6DC02115310561F4459A9FB7F894F1
:104F9000809108018260809308019FBF9FB7F894B9
:104FA00015C02130310511F4459A16C02230310563
:104FB00041F49FB7F89480910801826080930801C2
:104FC0000AC02330310541F49FB7F8948091050160
:104FD0008160809305019FBF8FEF80931D048091B6
:104FE0001F04882309F468C08091090190E0817052
:104FF0009070282F882381F18091090C882361F11A
:10500000E091A10BF091A20B80859185A285B385DB
:10501000181619061A061B06FCF48091C20B909113
:10502000C30BA091C40BB091C50B8093B60B9093AA
:10503000B70BA093B80BB093B90B81E080930A0C27
:1050400080899189A289B3898093FE0B9093FF0B8D
:10505000A093000CB093010C2093090C2DC02115D6
:10506000310561F445989FB7F894809108018D7FD0
:10507000809308019FBF9FB7F89415C02130310578
:1050800011F4459816C02230310541F49FB7F894C9
:10509000809108018D7F809308010AC0233031057B
:1050A00041F49FB7F894809105018E7F80930501AC
:1050B0009FBF81E080931D048091040CE091A10BBF
:1050C000F091A20B83FF08C081A1813011F4A19A55
:1050D00001C042988FEF07C081A1813011F4A198DF
:1050E00001C0429A81E080931E0460E00AC2809170
:1050F000C00087FF19C04091C600E091D405F0912F
:10510000D50531969F012F77307031978091D60564
:105110009091D7052817390739F0EC5AFA4F408398
:105120003093D5052093D405E091A10BF091A20B0B
:1051300020813181428153818091EE0B9091EF0B60
:10514000A091F00BB091F10B280F391F4A1F5B1F84
:105150002093EE0B3093EF0B4093F00B5093F10B39
:1051600012161306140615060CF03FC09FB7F894EC
:10517000809108018860809308019FBFE091A10B96
:10518000F091A20B80899189A289B389281B390BE0
:105190004A0B5B0B2093EE0B3093EF0B4093F00B1D
:1051A0005093F10B2091BA0B3091BB0B4091BC0B8B
:1051B0005091BD0B80911B04992787FD9095A92FD5
:1051C000B92F820F931FA41FB51F8093BA0B909322
:1051D000BB0BA093BC0BB093BD0B9FB7F894809111
:1051E0000801877F809308019FBFE091A10BF09198
:1051F000A20B24813581468157818091F20B9091D9
:10520000F30BA091F40BB091F50B280F391F4A1F37
:105210005B1F2093F20B3093F30B4093F40B5093EE
:10522000F50B12161306140615066CF5119A8089F3
:105230009189A289B389281B390B4A0B5B0B2093F8
:10524000F20B3093F30B4093F40B5093F50B20913A
:10525000BE0B3091BF0B4091C00B5091C10B8091A0
:105260001C04992787FD9095A92FB92F820F931FB2
:10527000A41FB51F8093BE0B9093BF0BA093C00BD0
:10528000B093C10B1198E091A10BF091A20B208576
:105290003185428553858091F60B9091F70BA09153
:1052A000F80BB091F90B280F391F4A1F5B1F209391
:1052B000F60B3093F70B4093F80B5093F90B121643
:1052C0001306140615060CF06DC08091EA0C90913F
:1052D000EB0C009729F4469A169A9FB7F8940EC0E3
:1052E0008130910511F4469A0FC08230910511F476
:1052F000169A0AC0039741F49FB7F894809105016C
:105300008260809305019FBFE091A10BF091A20BF9
:1053100080899189A289B389281B390B4A0B5B0BC1
:105320002093F60B3093F70B4093F80B5093F90B47
:105330002091C20B3091C30B4091C40B5091C50B0F
:1053400080911D04992787FD9095A92FB92F820F71
:10535000931FA41FB51F8093C20B9093C30BA09300
:10536000C40BB093C50B8091EA0C9091EB0C0097A5
:1053700029F4469816989FB7F8940EC0813091058D
:1053800011F446980FC08230910511F416980AC0A6
:10539000039741F49FB7F894809105018D7F809326
:1053A00005019FBFE091A10BF091A20B24853585EB
:1053B000468557858091FA0B9091FB0BA091FC0BD1
:1053C000B091FD0B280F391F4A1F5B1F2093FA0B6A
:1053D0003093FB0B4093FC0B5093FD0B12161306FE
:1053E000140615060CF05EC081A1813011F4409ABC
:1053F00001C0439A80899189A289B389281B390BFE
:105400004A0B5B0B2093FA0B3093FB0B4093FC0B86
:105410005093FD0B2091C60B3091C70B4091C80BE8
:105420005091C90B80911E04992787FD9095A92F53
:10543000B92F820F931FA41FB51F8093C60B9093A3
:10544000C70BA093C80BB093C90BE091A10BF091CF
:10545000A20B81A1813011F440980EC0439888239B
:1054600059F48091090190E075E0969587957A95B9
:10547000E1F7282F217005C020910901221F222762
:10548000221F2093200480912104821759F08091DB
:10549000020C9091030C01969093030C8093020CE4
:1054A000209321048091FE0B9091FF0BA091000CA2
:1054B000B091010C0196A11DB11D8093FE0B90933C
:1054C000FF0BA093000CB093010C2091FE0B3091C8
:1054D000FF0B4091000C5091010CE091A10BF09159
:1054E000A20B80899189A289B389281739074A07B5
:1054F0005B0730F0648575858685978535D806C04D
:105500006F5F80910B0C68170CF4F1CD2091FE0BAE
:105510003091FF0B4091000C5091010CE091A10BD8
:10552000F091A20B84899589A689B7898217930780
:10553000A407B50708F4E8C0E0900C0CF0900D0C3F
:1055400000910E0C10910F0CA48CB58CC68CD78CCE
:10555000A8019701C601B501AA27279FB12D389F41
:10556000E001489FD00D479FC00DD11D289FB00D71
:10557000C11DDA1F379FB00DC11DDA1F469FB00D48
:10558000C11DDA1F369FB10DCA1FDA1FB695CA1F9B
:10559000DA1F929FC00DD11D939FD00D112484ADB1
:1055A00095AD8C0F9D1F9093110C8093100C20AD26
:1055B00031AD42AD53ADA0E0B0E0281739074A073E
:1055C0005B0720F43093110C2093100C6091100CA9
:1055D0007091110C8CE96134780718F060E47CE973
:1055E00004C09EE46132790730F076956795769530
:1055F000679584E007C0E7E261317E0730F0769579
:10560000679582E080930B0C08C081E080930B0CBF
:105610006032710510F460E270E060527040F8E0B2
:1056200060307F07E8F0472F50E0440F551F440FCC
:10563000551F4E5D5E4F9A012E5F3F4FF9018591D8
:1056400094919C01AA27639FC001629F810D9A1FBC
:1056500006948A1F9A1F1124FA01459154911EC085
:10566000CB01969587958C7F8E5D9A4FFC01459175
:105670005491FC01329625913491862F90E08770E9
:105680009070FC012E9FC0012F9F900D3E9F900DAA
:10569000112403E0969587950A95E1F7481B590B6D
:1056A00044365105A8F4E2E0F2E007C08091C00062
:1056B00085FFFCCF31969093C60090819923B1F776
:1056C00088ED95E04AE050E00E94A00E44E650E0EC
:1056D00050938900409388009A0140E050E0809107
:1056E0000C0C90910D0CA0910E0CB0910F0C820F30
:1056F000931FA41FB51F80930C0C90930D0CA093C7
:105700000E0CB0930F0C07C12091FE0B3091FF0BD4
:105710004091000C5091010C808D918DA28DB38D24
:1057200082179307A407B50708F0E9C06091120C2F
:105730007091130C8091140C9091150C248D358D63
:10574000468D578DAA27639FB12D749FE001849FDA
:10575000D00D839FC00DD11D649FB00DC11DDA1FF8
:10576000739FB00DC11DDA1F829FB00DC11DDA1FDE
:10577000729FB10DCA1FDA1FB695CA1FDA1F569F56
:10578000C00DD11D579FD00D11248091100C909108
:10579000110C8C179D0738F4E05CFF4F608171811C
:1057A000E054F04003C0BC016C1B7D0BE05CFF4F7C
:1057B0002081318142815381CB01A0E0B0E082178A
:1057C0009307A407B50708F4B901FCE961347F0722
:1057D00018F060E47CE904C02EE46132720730F016
:1057E000769567957695679584E007C037E26131D5
:1057F000730730F07695679582E080930B0C08C0B4
:1058000081E080930B0C6032710510F460E270E06F
:105810006052704048E060307407E8F0472F50E075
:10582000440F551F440F551F4E5D5E4F9A012E5F6A
:105830003F4FF901859194919C01AA27639FC00174
:10584000629F810D9A1F06948A1F9A1F1124FA01E4
:10585000459154911EC0CB01969587958C7F8E5DA6
:105860009A4FFC0145915491FC0132962591349157
:10587000862F90E087709070FC012E9FC0012F9FB3
:10588000900D3E9F900D1124E3E096958795EA9543
:10589000E1F7481B590B44365105A8F4E2E0F2E069
:1058A00007C08091C00085FFFCCF31969093C60061
:1058B00090819923B1F788ED95E04AE050E00E948D
:1058C000A00E44E650E050938900409388009A016E
:1058D00040E050E08091120C9091130CA091140CB8
:1058E000B091150C820F931FA41FB51F8093120C4B
:1058F0009093130CA093140CB093150C0CC08091D2
:10590000160C9091170C90938900809388008091D9
:10591000180C80930B0C20918800309189008091A5
:1059200084009091850040962817390730F48091C3
:10593000840090918500409604C0809188009091E9
:10594000890090938900809388002091FE0B30910C
:10595000FF0B4091000C5091010CE091A10BF091D4
:10596000A20B80899189A289B389281739074A0730
:105970005B0780F01092A20B1092A10B9091620B2A
:105980008091630B981731F08091630B8F5F8F705C
:105990008093630BFF91EF91DF91CF91BF91AF9116
:1059A0009F918F917F916F915F914F913F912F9137
:1059B0001F910F91FF90EF90DF90CF90BF90AF902D
:1059C0000F900BBE0F900FBE0F901F90189560E0C8
:1059D00070E08FE793E420912604309127044091F2
:1059E0002804509129040E944A6BDC019B01AC0100
:1059F0002093790C30937A0C40937B0C50937C0C61
:105A0000CB0180937D0C90937E0CA0937F0CB09380
:105A1000800C0895FC01EA5AF34F808190E00895CC
:105A20000F931F93DC0141E050E0BA01660F771F2E
:105A3000660F771F6E5F7F4FFB01E354F64F859132
:105A400094918A179B070CF033C09A012150304083
:105A5000220F331F220F331FC9018354964FFC01BD
:105A6000059114912154364FF90125913491FA0191
:105A7000EE0FFF1FEE0FFF1FE354F64F8591949139
:105A8000FB01E354F64F65917491801B910BA21BAF
:105A9000B30B621B730B9C012A9FC0012B9F900DBF
:105AA0003A9F900D11240E94F86D600F711F11C074
:105AB000842F8F5F4F5F5F4F4D33510509F0B5CF96
:105AC0008D3319F060E070E004C0EDEAFAE0659112
:105AD000749120EF3FE3261B370BC9011F910F91F3
